12345678900000000001Loonkonto             0005000000DKK
99999999900000000001Opsparing             0005288109DKK
98765432100000000002Opsparing             0001200000EUR
11122233300000000003Budgetkonto           0000895000USD
55566677700000000004Børnekonto            0000152500DKK
22233344400000000005Pension               0004500000NOK
